:100000000C9434000C943E000C943E000C943E0082
:100010000C943E000C943E000C943E000C943E0068
:100020000C943E000C943E000C943E000C943E0058
:100030000C943E000C943E000C943E000C943E0048
:100040000C943E000C943E000C943E000C943E0038
:100050000C943E000C943E000C943E000C943E0028
:100060000C943E000C943E0011241FBECFEFD4E050
:10007000DEBFCDBF0E9440000C9458000C940000DD
:100080001BB888E08AB98BB92FEF33ED90E321508C
:1000900030409040E1F700C000001BB82FEF39E678
:1000A00098E1215030409040E1F700C00000EBCFD4
:0400B000F894FFCFF2
:00000001FF
